:1000000002003602000000000000000200000000B4
:1000100000000002000000000000000200000000DC
:0E0020000000000200000000000000020000CE
:08002E00E493F608A3D9F922BE
:100036007581807580FE7D077E567F3CDFFEDEFC87
:10004600DDFA7580FD7D077E567F3CDFFEDEFCDD3A
:10005600FA7580FB7D077E567F3CDFFEDEFCDDFA0F
:100066007580F77D077E567F3CDFFEDEFCDDFA7588
:1000760080EF7D077E567F3CDFFEDEFCDDFA758075
:10008600DE7D077E567F3CDFFEDEFCDDFA7580BF37
:100096007D077E567F3CDFFEDEFCDDFA75807F7DC8
:1000A600077E567F3CDFFEDEFCDDFA7580FF75902D
:1000B600FE7D077E567F3CDFFEDEFCDDFA7590FD99
:1000C6007D077E567F3CDFFEDEFCDDFA7590FB7D0C
:1000D600077E567F3CDFFEDEFCDDFA7590F77D0776
:1000E6007E567F3CDFFEDEFCDDFA7590EF7D077EF7
:1000F600567F3CDFFEDEFCDDFA7590DF7D077E561F
:100106007F3CDFFEDEFCDDFA7590BF7D077E567F05
:100116003CDFFEDEFCDDFA75907F7D077E567F3C78
:10012600DFFEDEFCDDFA7590FF75A0FE7D077E56CC
:100136007F3CDFFEDEFCDDFA75A0FD7D077E567F87
:100146003CDFFEDEFCDDFA75A0FB7D077E567F3CBC
:10015600DFFEDEFCDDFA75A0F77D077E567F3CDF0D
:10016600FEDEFCDDFA75A0EF7D077E567F3CDFFEE6
:10017600DEFCDDFA75A0DF7D077E567F3CDFFEDE06
:10018600FCDDFA75A0BF7D077E567F3CDFFEDEFCF8
:10019600DDFA75A07F7D077E567F3CDFFEDEFCDD47
:1001A600FA75A0FF75B0FE7D077E567F3CDFFEDE4A
:1001B600FCDDFA75B0FD7D077E567F3CDFFEDEFC7A
:1001C600DDFA75B0FB7D077E567F3CDFFEDEFCDD8B
:1001D600FA75B0F77D077E567F3CDFFEDEFCDDFA62
:1001E60075B0EF7D077E567F3CDFFEDEFCDDFA75DF
:1001F600B0DF7D077E567F3CDFFEDEFCDDFA75B0A4
:10020600BF7D077E567F3CDFFEDEFCDDFA75B07FE4
:100216007D077E567F3CDFFEDEFCDDFA75B0FF0112
:030226003980FE1E
:00000001FF
